{
  "contractName": "RealcoinShitcoin",
  "abi": [
    {
      "inputs": [],
      "payable": true,
      "stateMutability": "payable",
      "type": "constructor"
    },
    {
      "constant": true,
      "inputs": [],
      "name": "balance",
      "outputs": [
        {
          "internalType": "uint256",
          "name": "",
          "type": "uint256"
        }
      ],
      "payable": false,
      "stateMutability": "view",
      "type": "function"
    },
    {
      "constant": true,
      "inputs": [],
      "name": "owner",
      "outputs": [
        {
          "internalType": "address",
          "name": "",
          "type": "address"
        }
      ],
      "payable": false,
      "stateMutability": "view",
      "type": "function"
    },
    {
      "constant": false,
      "inputs": [
        {
          "internalType": "string",
          "name": "bet",
          "type": "string"
        }
      ],
      "name": "placeBet",
      "outputs": [
        {
          "internalType": "uint256",
          "name": "amount",
          "type": "uint256"
        }
      ],
      "payable": true,
      "stateMutability": "payable",
      "type": "function"
    },
    {
      "constant": true,
      "inputs": [
        {
          "internalType": "uint256",
          "name": "modulus",
          "type": "uint256"
        }
      ],
      "name": "randomize",
      "outputs": [
        {
          "internalType": "uint256",
          "name": "",
          "type": "uint256"
        }
      ],
      "payable": false,
      "stateMutability": "view",
      "type": "function"
    },
    {
      "constant": true,
      "inputs": [
        {
          "internalType": "string",
          "name": "a",
          "type": "string"
        },
        {
          "internalType": "string",
          "name": "b",
          "type": "string"
        }
      ],
      "name": "compareStrings",
      "outputs": [
        {
          "internalType": "bool",
          "name": "",
          "type": "bool"
        }
      ],
      "payable": false,
      "stateMutability": "pure",
      "type": "function"
    },
    {
      "constant": false,
      "inputs": [],
      "name": "withdrawAll",
      "outputs": [
        {
          "internalType": "uint256",
          "name": "",
          "type": "uint256"
        }
      ],
      "payable": false,
      "stateMutability": "nonpayable",
      "type": "function"
    }
  ],
  "bytecode": "0x6080604052336000806101000a81548173ffffffffffffffffffffffffffffffffffffffff021916908373ffffffffffffffffffffffffffffffffffffffff160217905550670de0b6b3a76400003410156100a5576040517f08c379a000000000000000000000000000000000000000000000000000000000815260040180806020018281038252602f815260200180610820602f913960400191505060405180910390fd5b34600181905550610765806100bb6000396000f3fe6080604052600436106100555760003560e01c806375827cae1461005a578063853828b6146100a95780638da5cb5b146100d457806397bfeb881461012b578063b69ef8a8146101fa578063bed34bba14610225575b600080fd5b34801561006657600080fd5b506100936004803603602081101561007d57600080fd5b810190808035906020019092919050505061039c565b6040518082815260200191505060405180910390f35b3480156100b557600080fd5b506100be6103af565b6040518082815260200191505060405180910390f35b3480156100e057600080fd5b506100e9610467565b604051808273ffffffffffffffffffffffffffffffffffffffff1673ffffffffffffffffffffffffffffffffffffffff16815260200191505060405180910390f35b6101e46004803603602081101561014157600080fd5b810190808035906020019064010000000081111561015e57600080fd5b82018360208201111561017057600080fd5b8035906020019184600183028401116401000000008311171561019257600080fd5b91908080601f016020809104026020016040519081016040528093929190818152602001838380828437600081840152601f19601f82011690508083019250505050505050919291929050505061048c565b6040518082815260200191505060405180910390f35b34801561020657600080fd5b5061020f61060d565b6040518082815260200191505060405180910390f35b34801561023157600080fd5b506103826004803603604081101561024857600080fd5b810190808035906020019064010000000081111561026557600080fd5b82018360208201111561027757600080fd5b8035906020019184600183028401116401000000008311171561029957600080fd5b91908080601f016020809104026020016040519081016040528093929190818152602001838380828437600081840152601f19601f820116905080830192505050505050509192919290803590602001906401000000008111156102fc57600080fd5b82018360208201111561030e57600080fd5b8035906020019184600183028401116401000000008311171561033057600080fd5b91908080601f016020809104026020016040519081016040528093929190818152602001838380828437600081840152601f19601f820116905080830192505050505050509192919290505050610613565b604051808215151515815260200191505060405180910390f35b60008142816103a757fe5b069050919050565b60008060009054906101000a900473ffffffffffffffffffffffffffffffffffffffff1673ffffffffffffffffffffffffffffffffffffffff163373ffffffffffffffffffffffffffffffffffffffff161461040a57600080fd5b6000600154905060006001819055503373ffffffffffffffffffffffffffffffffffffffff166108fc829081150290604051600060405180830381858888f1935050505015801561045f573d6000803e3d6000fd5b508091505090565b6000809054906101000a900473ffffffffffffffffffffffffffffffffffffffff1681565b60003460015410156104e9576040517f08c379a000000000000000000000000000000000000000000000000000000000815260040180806020018281038252602e815260200180610703602e913960400191505060405180910390fd5b60006104f5600261039c565b9050610536836040518060400160405280600881526020017f5265616c636f696e000000000000000000000000000000000000000000000000815250610613565b80156105425750600081145b806105945750610587836040518060400160405280600881526020017f53686974636f696e000000000000000000000000000000000000000000000000815250610613565b80156105935750600181145b5b156105f75734600154036001819055503373ffffffffffffffffffffffffffffffffffffffff166108fc600234029081150290604051600060405180830381858888f193505050501580156105ed573d6000803e3d6000fd5b5034915050610608565b346001540160018190555060009150505b919050565b60015481565b6000816040516020018082805190602001908083835b6020831061064c5780518252602082019150602081019050602083039250610629565b6001836020036101000a03801982511681845116808217855250505050505090500191505060405160208183030381529060405280519060200120836040516020018082805190602001908083835b602083106106be578051825260208201915060208101905060208303925061069b565b6001836020036101000a038019825116818451168082178552505050505050905001915050604051602081830303815290604052805190602001201490509291505056fe4e6f7420656e6f75676820657468657220696e20636f6e747261637420746f20616c6c6f7720746865206265742ea265627a7a7231582023782bae35a6a93c235e831717ef6034daf735862ca011c1c8270371f007c58464736f6c634300050c00326e656564206174206c65617374203120657468657220746f20696e69742074686520636f6e74726163742077697468",
  "source": "import \"./Ownable.sol\";\r\npragma solidity 0.5.12;\r\n\r\ncontract RealcoinShitcoin is Ownable{\r\n\r\n  uint public balance;\r\n\r\n  constructor() public payable {\r\n    require(msg.value >= 1 ether, \"need at least 1 ether to init the contract with\");\r\n    balance = msg.value;\r\n  }\r\n\r\n  function placeBet(string memory bet) public payable returns(uint amount){\r\n    require(balance >= msg.value, \"Not enough ether in contract to allow the bet.\");\r\n    uint result = randomize(2);\r\n\r\n    if((compareStrings(bet, \"Realcoin\") && result == 0) || (compareStrings(bet, \"Shitcoin\") && result == 1))\r\n    {\r\n      balance = balance - msg.value;\r\n      //send 2x bet amount (bet + win) to sender\r\n      msg.sender.transfer(msg.value * 2);\r\n\r\n      return (msg.value);\r\n    }\r\n    balance = balance + msg.value;\r\n    return 0;\r\n  }\r\n\r\n\r\n  function randomize(uint modulus) public view returns (uint){\r\n    return now % modulus;\r\n  }\r\n\r\n  function compareStrings (string memory a, string memory b) public pure returns (bool) {\r\n    return (keccak256(abi.encodePacked((a))) == keccak256(abi.encodePacked((b))));\r\n  }\r\n\r\n  function withdrawAll() public onlyOwner returns(uint) {\r\n       uint toTransfer = balance;\r\n       balance = 0;\r\n       msg.sender.transfer(toTransfer);\r\n       return toTransfer;\r\n   }\r\n\r\n}\r\n",
  "sourcePath": "C:/GitRepository/RealcoinShitcoin/contracts/RealcoinShitcoin.sol",
  "compiler": {
    "name": "solc",
    "version": "0.5.12+commit.7709ece9.Emscripten.clang"
  },
  "schemaVersion": "3.0.16",
  "updatedAt": "2020-05-08T19:41:00.083Z",
  "devdoc": {
    "methods": {}
  },
  "userdoc": {
    "methods": {}
  }
}