{
  "contractName": "RealcoinShitcoin",
  "abi": [
    {
      "inputs": [],
      "payable": true,
      "stateMutability": "payable",
      "type": "constructor"
    },
    {
      "anonymous": false,
      "inputs": [
        {
          "indexed": false,
          "internalType": "string",
          "name": "bet",
          "type": "string"
        },
        {
          "indexed": false,
          "internalType": "uint256",
          "name": "toTransfer",
          "type": "uint256"
        },
        {
          "indexed": false,
          "internalType": "uint256",
          "name": "modulus",
          "type": "uint256"
        }
      ],
      "name": "userLost",
      "type": "event"
    },
    {
      "anonymous": false,
      "inputs": [
        {
          "indexed": false,
          "internalType": "string",
          "name": "bet",
          "type": "string"
        },
        {
          "indexed": false,
          "internalType": "uint256",
          "name": "toTransfer",
          "type": "uint256"
        },
        {
          "indexed": false,
          "internalType": "uint256",
          "name": "modulus",
          "type": "uint256"
        }
      ],
      "name": "userWon",
      "type": "event"
    },
    {
      "constant": true,
      "inputs": [],
      "name": "balance",
      "outputs": [
        {
          "internalType": "uint256",
          "name": "",
          "type": "uint256"
        }
      ],
      "payable": false,
      "stateMutability": "view",
      "type": "function"
    },
    {
      "constant": true,
      "inputs": [],
      "name": "owner",
      "outputs": [
        {
          "internalType": "address",
          "name": "",
          "type": "address"
        }
      ],
      "payable": false,
      "stateMutability": "view",
      "type": "function"
    },
    {
      "constant": false,
      "inputs": [
        {
          "internalType": "string",
          "name": "bet",
          "type": "string"
        }
      ],
      "name": "placeBet",
      "outputs": [],
      "payable": true,
      "stateMutability": "payable",
      "type": "function"
    },
    {
      "constant": true,
      "inputs": [
        {
          "internalType": "uint256",
          "name": "modulus",
          "type": "uint256"
        }
      ],
      "name": "randomize",
      "outputs": [
        {
          "internalType": "uint256",
          "name": "",
          "type": "uint256"
        }
      ],
      "payable": false,
      "stateMutability": "view",
      "type": "function"
    },
    {
      "constant": true,
      "inputs": [
        {
          "internalType": "string",
          "name": "a",
          "type": "string"
        },
        {
          "internalType": "string",
          "name": "b",
          "type": "string"
        }
      ],
      "name": "compareStrings",
      "outputs": [
        {
          "internalType": "bool",
          "name": "",
          "type": "bool"
        }
      ],
      "payable": false,
      "stateMutability": "pure",
      "type": "function"
    },
    {
      "constant": false,
      "inputs": [],
      "name": "withdrawAll",
      "outputs": [
        {
          "internalType": "uint256",
          "name": "",
          "type": "uint256"
        }
      ],
      "payable": false,
      "stateMutability": "nonpayable",
      "type": "function"
    }
  ],
  "bytecode": "0x6080604052336000806101000a81548173ffffffffffffffffffffffffffffffffffffffff021916908373ffffffffffffffffffffffffffffffffffffffff160217905550670de0b6b3a76400003410156100a5576040517f08c379a000000000000000000000000000000000000000000000000000000000815260040180806020018281038252602f815260200180610962602f913960400191505060405180910390fd5b346001819055506108a7806100bb6000396000f3fe6080604052600436106100555760003560e01c806375827cae1461005a578063853828b6146100a95780638da5cb5b146100d457806397bfeb881461012b578063b69ef8a8146101e6578063bed34bba14610211575b600080fd5b34801561006657600080fd5b506100936004803603602081101561007d57600080fd5b8101908080359060200190929190505050610388565b6040518082815260200191505060405180910390f35b3480156100b557600080fd5b506100be61039b565b6040518082815260200191505060405180910390f35b3480156100e057600080fd5b506100e9610453565b604051808273ffffffffffffffffffffffffffffffffffffffff1673ffffffffffffffffffffffffffffffffffffffff16815260200191505060405180910390f35b6101e46004803603602081101561014157600080fd5b810190808035906020019064010000000081111561015e57600080fd5b82018360208201111561017057600080fd5b8035906020019184600183028401116401000000008311171561019257600080fd5b91908080601f016020809104026020016040519081016040528093929190818152602001838380828437600081840152601f19601f820116905080830192505050505050509192919290505050610478565b005b3480156101f257600080fd5b506101fb61074f565b6040518082815260200191505060405180910390f35b34801561021d57600080fd5b5061036e6004803603604081101561023457600080fd5b810190808035906020019064010000000081111561025157600080fd5b82018360208201111561026357600080fd5b8035906020019184600183028401116401000000008311171561028557600080fd5b91908080601f016020809104026020016040519081016040528093929190818152602001838380828437600081840152601f19601f820116905080830192505050505050509192919290803590602001906401000000008111156102e857600080fd5b8201836020820111156102fa57600080fd5b8035906020019184600183028401116401000000008311171561031c57600080fd5b91908080601f016020809104026020016040519081016040528093929190818152602001838380828437600081840152601f19601f820116905080830192505050505050509192919290505050610755565b604051808215151515815260200191505060405180910390f35b600081428161039357fe5b069050919050565b60008060009054906101000a900473ffffffffffffffffffffffffffffffffffffffff1673ffffffffffffffffffffffffffffffffffffffff163373ffffffffffffffffffffffffffffffffffffffff16146103f657600080fd5b6000600154905060006001819055503373ffffffffffffffffffffffffffffffffffffffff166108fc829081150290604051600060405180830381858888f1935050505015801561044b573d6000803e3d6000fd5b508091505090565b6000809054906101000a900473ffffffffffffffffffffffffffffffffffffffff1681565b3460015410156104d3576040517f08c379a000000000000000000000000000000000000000000000000000000000815260040180806020018281038252602e815260200180610845602e913960400191505060405180910390fd5b60006104df6002610388565b90506000610522836040518060400160405280600881526020017f5265616c636f696e000000000000000000000000000000000000000000000000815250610755565b801561052e5750600082145b806105805750610573836040518060400160405280600881526020017f53686974636f696e000000000000000000000000000000000000000000000000815250610755565b801561057f5750600182145b5b1561068e5760023402905080600154036001819055503373ffffffffffffffffffffffffffffffffffffffff166108fc829081150290604051600060405180830381858888f193505050501580156105dc573d6000803e3d6000fd5b507f1ffedd47cc3493753240e815420bb9d629a35dada53b3f228eb2769b5e92e0038382846040518080602001848152602001838152602001828103825285818151815260200191508051906020019080838360005b8381101561064d578082015181840152602081019050610632565b50505050905090810190601f16801561067a5780820380516001836020036101000a031916815260200191505b5094505050505060405180910390a161074a565b6000905080600154016001819055507f30efaf69bb0da37634e82edbf6a38ff28aefba04f4f53da544629c7980316e688382846040518080602001848152602001838152602001828103825285818151815260200191508051906020019080838360005b8381101561070d5780820151818401526020810190506106f2565b50505050905090810190601f16801561073a5780820380516001836020036101000a031916815260200191505b5094505050505060405180910390a15b505050565b60015481565b6000816040516020018082805190602001908083835b6020831061078e578051825260208201915060208101905060208303925061076b565b6001836020036101000a03801982511681845116808217855250505050505090500191505060405160208183030381529060405280519060200120836040516020018082805190602001908083835b6020831061080057805182526020820191506020810190506020830392506107dd565b6001836020036101000a038019825116818451168082178552505050505050905001915050604051602081830303815290604052805190602001201490509291505056fe4e6f7420656e6f75676820657468657220696e20636f6e747261637420746f20616c6c6f7720746865206265742ea265627a7a7231582045570a394184a889d15d2acbebf71fa3604daac6d96daa87b689e9e34a2420a864736f6c634300050c00326e656564206174206c65617374203120657468657220746f20696e69742074686520636f6e74726163742077697468",
  "source": "import \"./Ownable.sol\";\r\npragma solidity 0.5.12;\r\n\r\ncontract RealcoinShitcoin is Ownable{\r\n\r\n  uint public balance;\r\n  event userWon(string bet, uint toTransfer, uint modulus);\r\n  event userLost(string bet, uint toTransfer, uint modulus);\r\n\r\n  constructor() public payable {\r\n    require(msg.value >= 1 ether, \"need at least 1 ether to init the contract with\");\r\n    balance = msg.value;\r\n  }\r\n\r\n  function placeBet(string memory bet) public payable{\r\n    require(balance >= msg.value, \"Not enough ether in contract to allow the bet.\");\r\n    uint result = randomize(2);\r\n    uint toTransfer;\r\n\r\n    if((compareStrings(bet, \"Realcoin\") && result == 0) || (compareStrings(bet, \"Shitcoin\") && result == 1))\r\n    {\r\n      toTransfer = msg.value * 2;\r\n      balance = balance - toTransfer;\r\n      //send 2x bet amount (bet + win) to sender\r\n      msg.sender.transfer(toTransfer);\r\n      emit userWon(bet, toTransfer, result);\r\n      //return (toTransfer);\r\n    }\r\n    else\r\n    {\r\n      toTransfer = 0;\r\n      balance = balance + toTransfer;\r\n      emit userLost(bet, toTransfer, result);\r\n      //return 0;\r\n    }\r\n\r\n  }\r\n\r\n\r\n  function randomize(uint modulus) public view returns (uint){\r\n    return now % modulus;\r\n  }\r\n\r\n  function compareStrings (string memory a, string memory b) public pure returns (bool) {\r\n    return (keccak256(abi.encodePacked((a))) == keccak256(abi.encodePacked((b))));\r\n  }\r\n\r\n  function withdrawAll() public onlyOwner returns(uint) {\r\n       uint toTransfer = balance;\r\n       balance = 0;\r\n       msg.sender.transfer(toTransfer);\r\n       return toTransfer;\r\n   }\r\n\r\n}\r\n",
  "sourcePath": "C:/GitRepository/RealcoinShitcoin/contracts/RealcoinShitcoin.sol",
  "compiler": {
    "name": "solc",
    "version": "0.5.12+commit.7709ece9.Emscripten.clang"
  },
  "schemaVersion": "3.0.16",
  "updatedAt": "2020-05-10T00:24:35.503Z",
  "devdoc": {
    "methods": {}
  },
  "userdoc": {
    "methods": {}
  }
}