{
  "contractName": "RealcoinShitcoin",
  "abi": [
    {
      "inputs": [],
      "payable": true,
      "stateMutability": "payable",
      "type": "constructor"
    },
    {
      "anonymous": false,
      "inputs": [
        {
          "indexed": false,
          "internalType": "string",
          "name": "id",
          "type": "string"
        },
        {
          "indexed": false,
          "internalType": "uint256",
          "name": "bet",
          "type": "uint256"
        },
        {
          "indexed": false,
          "internalType": "uint256",
          "name": "outcome",
          "type": "uint256"
        },
        {
          "indexed": false,
          "internalType": "uint256",
          "name": "amountWon",
          "type": "uint256"
        }
      ],
      "name": "betResult",
      "type": "event"
    },
    {
      "constant": true,
      "inputs": [],
      "name": "balance",
      "outputs": [
        {
          "internalType": "uint256",
          "name": "",
          "type": "uint256"
        }
      ],
      "payable": false,
      "stateMutability": "view",
      "type": "function"
    },
    {
      "constant": true,
      "inputs": [],
      "name": "owner",
      "outputs": [
        {
          "internalType": "address",
          "name": "",
          "type": "address"
        }
      ],
      "payable": false,
      "stateMutability": "view",
      "type": "function"
    },
    {
      "constant": false,
      "inputs": [
        {
          "internalType": "string",
          "name": "id",
          "type": "string"
        },
        {
          "internalType": "uint256",
          "name": "bet",
          "type": "uint256"
        }
      ],
      "name": "placeBet",
      "outputs": [],
      "payable": true,
      "stateMutability": "payable",
      "type": "function"
    },
    {
      "constant": true,
      "inputs": [
        {
          "internalType": "uint256",
          "name": "modulus",
          "type": "uint256"
        }
      ],
      "name": "randomize",
      "outputs": [
        {
          "internalType": "uint256",
          "name": "",
          "type": "uint256"
        }
      ],
      "payable": false,
      "stateMutability": "view",
      "type": "function"
    },
    {
      "constant": true,
      "inputs": [
        {
          "internalType": "string",
          "name": "a",
          "type": "string"
        },
        {
          "internalType": "string",
          "name": "b",
          "type": "string"
        }
      ],
      "name": "compareStrings",
      "outputs": [
        {
          "internalType": "bool",
          "name": "",
          "type": "bool"
        }
      ],
      "payable": false,
      "stateMutability": "pure",
      "type": "function"
    },
    {
      "constant": false,
      "inputs": [],
      "name": "withdrawAll",
      "outputs": [
        {
          "internalType": "uint256",
          "name": "",
          "type": "uint256"
        }
      ],
      "payable": false,
      "stateMutability": "nonpayable",
      "type": "function"
    }
  ],
  "bytecode": "0x6080604052336000806101000a81548173ffffffffffffffffffffffffffffffffffffffff021916908373ffffffffffffffffffffffffffffffffffffffff160217905550670de0b6b3a76400003410156100a5576040517f08c379a000000000000000000000000000000000000000000000000000000000815260040180806020018281038252602f815260200180610824602f913960400191505060405180910390fd5b34600181905550610769806100bb6000396000f3fe6080604052600436106100555760003560e01c806375827cae1461005a578063853828b6146100a95780638da5cb5b146100d4578063b69ef8a81461012b578063bed34bba14610156578063d76f2a1e146102cd575b600080fd5b34801561006657600080fd5b506100936004803603602081101561007d57600080fd5b8101908080359060200190929190505050610392565b6040518082815260200191505060405180910390f35b3480156100b557600080fd5b506100be6103a5565b6040518082815260200191505060405180910390f35b3480156100e057600080fd5b506100e961045d565b604051808273ffffffffffffffffffffffffffffffffffffffff1673ffffffffffffffffffffffffffffffffffffffff16815260200191505060405180910390f35b34801561013757600080fd5b50610140610482565b6040518082815260200191505060405180910390f35b34801561016257600080fd5b506102b36004803603604081101561017957600080fd5b810190808035906020019064010000000081111561019657600080fd5b8201836020820111156101a857600080fd5b803590602001918460018302840111640100000000831117156101ca57600080fd5b91908080601f016020809104026020016040519081016040528093929190818152602001838380828437600081840152601f19601f8201169050808301925050505050505091929192908035906020019064010000000081111561022d57600080fd5b82018360208201111561023f57600080fd5b8035906020019184600183028401116401000000008311171561026157600080fd5b91908080601f016020809104026020016040519081016040528093929190818152602001838380828437600081840152601f19601f820116905080830192505050505050509192919290505050610488565b604051808215151515815260200191505060405180910390f35b610390600480360360408110156102e357600080fd5b810190808035906020019064010000000081111561030057600080fd5b82018360208201111561031257600080fd5b8035906020019184600183028401116401000000008311171561033457600080fd5b91908080601f016020809104026020016040519081016040528093929190818152602001838380828437600081840152601f19601f82011690508083019250505050505050919291929080359060200190929190505050610577565b005b600081428161039d57fe5b069050919050565b60008060009054906101000a900473ffffffffffffffffffffffffffffffffffffffff1673ffffffffffffffffffffffffffffffffffffffff163373ffffffffffffffffffffffffffffffffffffffff161461040057600080fd5b6000600154905060006001819055503373ffffffffffffffffffffffffffffffffffffffff166108fc829081150290604051600060405180830381858888f19350505050158015610455573d6000803e3d6000fd5b508091505090565b6000809054906101000a900473ffffffffffffffffffffffffffffffffffffffff1681565b60015481565b6000816040516020018082805190602001908083835b602083106104c1578051825260208201915060208101905060208303925061049e565b6001836020036101000a03801982511681845116808217855250505050505090500191505060405160208183030381529060405280519060200120836040516020018082805190602001908083835b602083106105335780518252602082019150602081019050602083039250610510565b6001836020036101000a0380198251168184511680821785525050505050509050019150506040516020818303038152906040528051906020012014905092915050565b3460015410156105d2576040517f08c379a000000000000000000000000000000000000000000000000000000000815260040180806020018281038252602e815260200180610707602e913960400191505060405180910390fd5b60006105de6002610392565b90506000818314156106475760023402905080600154036001819055503373ffffffffffffffffffffffffffffffffffffffff166108fc829081150290604051600060405180830381858888f19350505050158015610641573d6000803e3d6000fd5b5061064c565b600090505b7f9ded4943034a0cd670ea98fc503e5fd21ccf0af59cd1a25e3ba6ebfd4cdb3906848484846040518080602001858152602001848152602001838152602001828103825286818151815260200191508051906020019080838360005b838110156106c35780820151818401526020810190506106a8565b50505050905090810190601f1680156106f05780820380516001836020036101000a031916815260200191505b509550505050505060405180910390a15050505056fe4e6f7420656e6f75676820657468657220696e20636f6e747261637420746f20616c6c6f7720746865206265742ea265627a7a72315820cb224ebfa6b94467d4f4702a8c16eedd8e997a41a894f8015909c067de2c36a864736f6c634300050c00326e656564206174206c65617374203120657468657220746f20696e69742074686520636f6e74726163742077697468",
  "source": "import \"./Ownable.sol\";\r\npragma solidity 0.5.12;\r\n\r\ncontract RealcoinShitcoin is Ownable{\r\n\r\n  uint public balance;\r\n  event betResult(string id, uint bet, uint outcome, uint amountWon);\r\n\r\n  constructor() public payable {\r\n    require(msg.value >= 1 ether, \"need at least 1 ether to init the contract with\");\r\n    balance = msg.value;\r\n  }\r\n\r\n  function placeBet(string memory id, uint bet) public payable{\r\n    require(balance >= msg.value, \"Not enough ether in contract to allow the bet.\");\r\n    uint result = randomize(2);\r\n    uint toTransfer;\r\n\r\n    if(bet == result)\r\n    {\r\n      toTransfer = msg.value * 2;\r\n      balance = balance - toTransfer;\r\n      //send 2x bet amount (bet + win) to sender\r\n      msg.sender.transfer(toTransfer);\r\n    }\r\n    else\r\n    {\r\n      toTransfer = 0;\r\n    }\r\n    emit betResult(id, bet, result, toTransfer);\r\n  }\r\n\r\n\r\n  function randomize(uint modulus) public view returns (uint){\r\n    return now % modulus;\r\n  }\r\n\r\n  function compareStrings (string memory a, string memory b) public pure returns (bool) {\r\n    return (keccak256(abi.encodePacked((a))) == keccak256(abi.encodePacked((b))));\r\n  }\r\n\r\n  function withdrawAll() public onlyOwner returns(uint) {\r\n       uint toTransfer = balance;\r\n       balance = 0;\r\n       msg.sender.transfer(toTransfer);\r\n       return toTransfer;\r\n   }\r\n\r\n}\r\n",
  "sourcePath": "C:/GitRepository/RealcoinShitcoin/contracts/RealcoinShitcoin.sol",
  "compiler": {
    "name": "solc",
    "version": "0.5.12+commit.7709ece9.Emscripten.clang"
  },
  "schemaVersion": "3.0.16",
  "updatedAt": "2020-05-10T16:57:32.216Z",
  "devdoc": {
    "methods": {}
  },
  "userdoc": {
    "methods": {}
  }
}