{
  "contractName": "RealcoinShitcoin",
  "abi": [
    {
      "constant": false,
      "inputs": [
        {
          "internalType": "string",
          "name": "bet",
          "type": "string"
        },
        {
          "internalType": "uint256",
          "name": "betAmount",
          "type": "uint256"
        }
      ],
      "name": "placeBet",
      "outputs": [
        {
          "internalType": "uint256",
          "name": "amount",
          "type": "uint256"
        }
      ],
      "payable": true,
      "stateMutability": "payable",
      "type": "function"
    },
    {
      "constant": true,
      "inputs": [
        {
          "internalType": "uint256",
          "name": "modulus",
          "type": "uint256"
        }
      ],
      "name": "randomize",
      "outputs": [
        {
          "internalType": "uint256",
          "name": "",
          "type": "uint256"
        }
      ],
      "payable": false,
      "stateMutability": "view",
      "type": "function"
    },
    {
      "constant": true,
      "inputs": [
        {
          "internalType": "string",
          "name": "a",
          "type": "string"
        },
        {
          "internalType": "string",
          "name": "b",
          "type": "string"
        }
      ],
      "name": "compareStrings",
      "outputs": [
        {
          "internalType": "bool",
          "name": "",
          "type": "bool"
        }
      ],
      "payable": false,
      "stateMutability": "pure",
      "type": "function"
    }
  ],
  "bytecode": "0x608060405234801561001057600080fd5b5061051f806100206000396000f3fe6080604052600436106100345760003560e01c806375827cae14610039578063bed34bba14610088578063d76f2a1e146101ff575b600080fd5b34801561004557600080fd5b506100726004803603602081101561005c57600080fd5b81019080803590602001909291905050506102d8565b6040518082815260200191505060405180910390f35b34801561009457600080fd5b506101e5600480360360408110156100ab57600080fd5b81019080803590602001906401000000008111156100c857600080fd5b8201836020820111156100da57600080fd5b803590602001918460018302840111640100000000831117156100fc57600080fd5b91908080601f016020809104026020016040519081016040528093929190818152602001838380828437600081840152601f19601f8201169050808301925050505050505091929192908035906020019064010000000081111561015f57600080fd5b82018360208201111561017157600080fd5b8035906020019184600183028401116401000000008311171561019357600080fd5b91908080601f016020809104026020016040519081016040528093929190818152602001838380828437600081840152601f19601f8201169050808301925050505050505091929192905050506102eb565b604051808215151515815260200191505060405180910390f35b6102c26004803603604081101561021557600080fd5b810190808035906020019064010000000081111561023257600080fd5b82018360208201111561024457600080fd5b8035906020019184600183028401116401000000008311171561026657600080fd5b91908080601f016020809104026020016040519081016040528093929190818152602001838380828437600081840152601f19601f820116905080830192505050505050509192919290803590602001909291905050506103da565b6040518082815260200191505060405180910390f35b60008142816102e357fe5b069050919050565b6000816040516020018082805190602001908083835b602083106103245780518252602082019150602081019050602083039250610301565b6001836020036101000a03801982511681845116808217855250505050505090500191505060405160208183030381529060405280519060200120836040516020018082805190602001908083835b602083106103965780518252602082019150602081019050602083039250610373565b6001836020036101000a0380198251168184511680821785525050505050509050019150506040516020818303038152906040528051906020012014905092915050565b6000806103e760026102d8565b9050610428846040518060400160405280600881526020017f5265616c636f696e0000000000000000000000000000000000000000000000008152506102eb565b80156104345750600081145b806104865750610479846040518060400160405280600881526020017f53686974636f696e0000000000000000000000000000000000000000000000008152506102eb565b80156104855750600181145b5b156104de573373ffffffffffffffffffffffffffffffffffffffff166108fc600285029081150290604051600060405180830381858888f193505050501580156104d4573d6000803e3d6000fd5b50829150506104e4565b60009150505b9291505056fea265627a7a7231582031373df304aba7c91b0b99c01ed9fe31c44ccfae3288a9b524b0b3cf2f0f845264736f6c634300050c0032",
  "source": "pragma solidity 0.5.12;\r\n\r\ncontract RealcoinShitcoin{\r\n\r\n  function placeBet(string memory bet, uint betAmount) public payable returns(uint amount){\r\n    uint result = randomize(2);\r\n\r\n    if((compareStrings(bet, \"Realcoin\") && result == 0) || (compareStrings(bet, \"Shitcoin\") && result == 1))\r\n    {\r\n      //send 2x bet amount (bet + win) to sender\r\n      msg.sender.transfer(betAmount * 2);\r\n\r\n      return (betAmount);\r\n    }\r\n    return 0;\r\n  }\r\n\r\n\r\n  function randomize(uint modulus) public view returns (uint){\r\n    return now % modulus;\r\n  }\r\n\r\n  function compareStrings (string memory a, string memory b) public pure returns (bool) {\r\n    return (keccak256(abi.encodePacked((a))) == keccak256(abi.encodePacked((b))));\r\n  }\r\n\r\n}\r\n",
  "sourcePath": "C:/GitRepository/RealcoinShitcoin/contracts/RealcoinShitcoin.sol",
  "compiler": {
    "name": "solc",
    "version": "0.5.12+commit.7709ece9.Emscripten.clang"
  },
  "schemaVersion": "3.0.16",
  "updatedAt": "2020-05-08T01:54:23.230Z",
  "devdoc": {
    "methods": {}
  },
  "userdoc": {
    "methods": {}
  }
}