{
  "contractName": "RealcoinShitcoin",
  "abi": [
    {
      "inputs": [],
      "payable": true,
      "stateMutability": "payable",
      "type": "constructor"
    },
    {
      "anonymous": false,
      "inputs": [
        {
          "indexed": false,
          "internalType": "string",
          "name": "id",
          "type": "string"
        },
        {
          "indexed": false,
          "internalType": "uint256",
          "name": "bet",
          "type": "uint256"
        },
        {
          "indexed": false,
          "internalType": "uint256",
          "name": "outcome",
          "type": "uint256"
        },
        {
          "indexed": false,
          "internalType": "uint256",
          "name": "amountWon",
          "type": "uint256"
        }
      ],
      "name": "betResult",
      "type": "event"
    },
    {
      "constant": true,
      "inputs": [],
      "name": "balance",
      "outputs": [
        {
          "internalType": "uint256",
          "name": "",
          "type": "uint256"
        }
      ],
      "payable": false,
      "stateMutability": "view",
      "type": "function"
    },
    {
      "constant": true,
      "inputs": [],
      "name": "latestNumber",
      "outputs": [
        {
          "internalType": "uint256",
          "name": "",
          "type": "uint256"
        }
      ],
      "payable": false,
      "stateMutability": "view",
      "type": "function"
    },
    {
      "constant": true,
      "inputs": [],
      "name": "owner",
      "outputs": [
        {
          "internalType": "address",
          "name": "",
          "type": "address"
        }
      ],
      "payable": false,
      "stateMutability": "view",
      "type": "function"
    },
    {
      "constant": false,
      "inputs": [
        {
          "internalType": "string",
          "name": "id",
          "type": "string"
        },
        {
          "internalType": "uint256",
          "name": "bet",
          "type": "uint256"
        }
      ],
      "name": "placeBet",
      "outputs": [],
      "payable": true,
      "stateMutability": "payable",
      "type": "function"
    },
    {
      "constant": true,
      "inputs": [
        {
          "internalType": "uint256",
          "name": "modulus",
          "type": "uint256"
        }
      ],
      "name": "randomize",
      "outputs": [
        {
          "internalType": "uint256",
          "name": "",
          "type": "uint256"
        }
      ],
      "payable": false,
      "stateMutability": "view",
      "type": "function"
    },
    {
      "constant": false,
      "inputs": [
        {
          "internalType": "bytes32",
          "name": "_myid",
          "type": "bytes32"
        },
        {
          "internalType": "string",
          "name": "_result",
          "type": "string"
        }
      ],
      "name": "__callback",
      "outputs": [],
      "payable": false,
      "stateMutability": "nonpayable",
      "type": "function"
    },
    {
      "constant": false,
      "inputs": [
        {
          "internalType": "bytes32",
          "name": "_queryId",
          "type": "bytes32"
        },
        {
          "internalType": "string",
          "name": "_result",
          "type": "string"
        },
        {
          "internalType": "bytes",
          "name": "_proof",
          "type": "bytes"
        }
      ],
      "name": "__callback",
      "outputs": [],
      "payable": false,
      "stateMutability": "nonpayable",
      "type": "function"
    },
    {
      "constant": false,
      "inputs": [],
      "name": "oracleRandomize",
      "outputs": [
        {
          "internalType": "bytes32",
          "name": "",
          "type": "bytes32"
        }
      ],
      "payable": true,
      "stateMutability": "payable",
      "type": "function"
    },
    {
      "constant": true,
      "inputs": [
        {
          "internalType": "string",
          "name": "a",
          "type": "string"
        },
        {
          "internalType": "string",
          "name": "b",
          "type": "string"
        }
      ],
      "name": "compareStrings",
      "outputs": [
        {
          "internalType": "bool",
          "name": "",
          "type": "bool"
        }
      ],
      "payable": false,
      "stateMutability": "pure",
      "type": "function"
    },
    {
      "constant": false,
      "inputs": [],
      "name": "withdrawAll",
      "outputs": [
        {
          "internalType": "uint256",
          "name": "",
          "type": "uint256"
        }
      ],
      "payable": false,
      "stateMutability": "nonpayable",
      "type": "function"
    }
  ],
  "bytecode": "0x6080604052336000806101000a81548173ffffffffffffffffffffffffffffffffffffffff021916908373ffffffffffffffffffffffffffffffffffffffff16021790555067016345785d8a00003410156100a5576040517f08c379a0000000000000000000000000000000000000000000000000000000008152600401808060200182810382526031815260200180612fed6031913960400191505060405180910390fd5b34600681905550612f32806100bb6000396000f3fe6080604052600436106100915760003560e01c80638da5cb5b116100595780638da5cb5b14610369578063b69ef8a8146103c0578063bed34bba146103eb578063d76f2a1e14610562578063dc34b0aa1461062757610091565b806327dc297e146100965780632b47a7d21461016857806338bbfa501461018657806375827cae146102ef578063853828b61461033e575b600080fd5b3480156100a257600080fd5b50610166600480360360408110156100b957600080fd5b8101908080359060200190929190803590602001906401000000008111156100e057600080fd5b8201836020820111156100f257600080fd5b8035906020019184600183028401116401000000008311171561011457600080fd5b91908080601f016020809104026020016040519081016040528093929190818152602001838380828437600081840152601f19601f820116905080830192505050505050509192919290505050610652565b005b610170610695565b6040518082815260200191505060405180910390f35b34801561019257600080fd5b506102ed600480360360608110156101a957600080fd5b8101908080359060200190929190803590602001906401000000008111156101d057600080fd5b8201836020820111156101e257600080fd5b8035906020019184600183028401116401000000008311171561020457600080fd5b91908080601f016020809104026020016040519081016040528093929190818152602001838380828437600081840152601f19601f8201169050808301925050505050505091929192908035906020019064010000000081111561026757600080fd5b82018360208201111561027957600080fd5b8035906020019184600183028401116401000000008311171561029b57600080fd5b91908080601f016020809104026020016040519081016040528093929190818152602001838380828437600081840152601f19601f8201169050808301925050505050505091929192905050506106b7565b005b3480156102fb57600080fd5b506103286004803603602081101561031257600080fd5b81019080803590602001909291905050506109ff565b6040518082815260200191505060405180910390f35b34801561034a57600080fd5b50610353610a12565b6040518082815260200191505060405180910390f35b34801561037557600080fd5b5061037e610aca565b604051808273ffffffffffffffffffffffffffffffffffffffff1673ffffffffffffffffffffffffffffffffffffffff16815260200191505060405180910390f35b3480156103cc57600080fd5b506103d5610aef565b6040518082815260200191505060405180910390f35b3480156103f757600080fd5b506105486004803603604081101561040e57600080fd5b810190808035906020019064010000000081111561042b57600080fd5b82018360208201111561043d57600080fd5b8035906020019184600183028401116401000000008311171561045f57600080fd5b91908080601f016020809104026020016040519081016040528093929190818152602001838380828437600081840152601f19601f820116905080830192505050505050509192919290803590602001906401000000008111156104c257600080fd5b8201836020820111156104d457600080fd5b803590602001918460018302840111640100000000831117156104f657600080fd5b91908080601f016020809104026020016040519081016040528093929190818152602001838380828437600081840152601f19601f820116905080830192505050505050509192919290505050610af5565b604051808215151515815260200191505060405180910390f35b6106256004803603604081101561057857600080fd5b810190808035906020019064010000000081111561059557600080fd5b8201836020820111156105a757600080fd5b803590602001918460018302840111640100000000831117156105c957600080fd5b91908080601f016020809104026020016040519081016040528093929190818152602001838380828437600081840152601f19601f82011690508083019250505050505050919291929080359060200190929190505050610be4565b005b34801561063357600080fd5b5061063c610d3d565b6040518082815260200191505060405180910390f35b610691828260006040519080825280601f01601f19166020018201604052801561068b5781602001600182028038833980820191505090505b506106b7565b5050565b60008060009050600062030d4090506106b082600183610d43565b9250505090565b6106bf6112de565b73ffffffffffffffffffffffffffffffffffffffff163373ffffffffffffffffffffffffffffffffffffffff16146106f657600080fd5b60006002836040516020018082805190602001908083835b60208310610731578051825260208201915060208101905060208303925061070e565b6001836020036101000a0380198251168184511680821785525050505050509050019150506040516020818303038152906040528051906020012060001c8161077657fe5b06905080600881905550610788612d2b565b60076000868152602001908152602001600020604051806080016040529081600082018054600181600116156101000203166002900480601f01602080910402602001604051908101604052809291908181526020018280546001816001161561010002031660029004801561083f5780601f106108145761010080835404028352916020019161083f565b820191906000526020600020905b81548152906001019060200180831161082257829003601f168201915b5050505050815260200160018201548152602001600282015481526020016003820160009054906101000a900473ffffffffffffffffffffffffffffffffffffffff1673ffffffffffffffffffffffffffffffffffffffff1673ffffffffffffffffffffffffffffffffffffffff16815250509050600080905060006108c4866115fe565b9050808360200151141561093357600283604001510291508160065403600681905550826060015173ffffffffffffffffffffffffffffffffffffffff166108fc839081150290604051600060405180830381858888f19350505050158015610931573d6000803e3d6000fd5b505b7f9ded4943034a0cd670ea98fc503e5fd21ccf0af59cd1a25e3ba6ebfd4cdb3906836000015184602001518360028760400151026040518080602001858152602001848152602001838152602001828103825286818151815260200191508051906020019080838360005b838110156109b957808201518184015260208101905061099e565b50505050905090810190601f1680156109e65780820380516001836020036101000a031916815260200191505b509550505050505060405180910390a150505050505050565b6000814281610a0a57fe5b069050919050565b60008060009054906101000a900473ffffffffffffffffffffffffffffffffffffffff1673ffffffffffffffffffffffffffffffffffffffff163373ffffffffffffffffffffffffffffffffffffffff1614610a6d57600080fd5b6000600654905060006006819055503373ffffffffffffffffffffffffffffffffffffffff166108fc829081150290604051600060405180830381858888f19350505050158015610ac2573d6000803e3d6000fd5b508091505090565b6000809054906101000a900473ffffffffffffffffffffffffffffffffffffffff1681565b60065481565b6000816040516020018082805190602001908083835b60208310610b2e5780518252602082019150602081019050602083039250610b0b565b6001836020036101000a03801982511681845116808217855250505050505090500191505060405160208183030381529060405280519060200120836040516020018082805190602001908083835b60208310610ba05780518252602082019150602081019050602083039250610b7d565b6001836020036101000a0380198251168184511680821785525050505050509050019150506040516020818303038152906040528051906020012014905092915050565b346006541015610c3f576040517f08c379a000000000000000000000000000000000000000000000000000000000815260040180806020018281038252602e815260200180612ed0602e913960400191505060405180910390fd5b610c47612d2b565b828160000181905250818160200181815250503481604001818152505033816060019073ffffffffffffffffffffffffffffffffffffffff16908173ffffffffffffffffffffffffffffffffffffffff16815250506000610ca6610695565b905081600760008381526020019081526020016000206000820151816000019080519060200190610cd8929190612d69565b50602082015181600101556040820151816002015560608201518160030160006101000a81548173ffffffffffffffffffffffffffffffffffffffff021916908373ffffffffffffffffffffffffffffffffffffffff16021790555090505050505050565b60085481565b60008083118015610d55575060208311155b610d5e57600080fd5b600a84029350606060016040519080825280601f01601f191660200182016040528015610d9a5781602001600182028038833980820191505090505b5090508360f81b81600081518110610dae57fe5b60200101907effffffffffffffffffffffffffffffffffffffffffffffffffffffffffffff1916908160001a905350606060206040519080825280601f01601f191660200182016040528015610e135781602001600182028038833980820191505090505b509050606060206040519080825280601f01601f191660200182016040528015610e4c5781602001600182028038833980820191505090505b5090506000610e59611612565b905060208352424118600143034018602084015260208252806020830152606060206040519080825280601f01601f191660200182016040528015610ead5781602001600182028038833980820191505090505b509050886020820152606060086040519080825280601f01601f191660200182016040528015610eec5781602001600182028038833980820191505090505b509050610eff8260186008846000611932565b50610f08612de9565b60405180608001604052808781526020018881526020018681526020018481525090506000610f6d6040518060400160405280600681526020017f72616e646f6d0000000000000000000000000000000000000000000000000000815250838c611991565b9050606060086040519080825280601f01601f191660200182016040528015610fa55781602001600182028038833980820191505090505b50905060208401517f0100000000000000000000000000000000000000000000000000000000000000810460278301537e01000000000000000000000000000000000000000000000000000000000000810460268301537d010000000000000000000000000000000000000000000000000000000000810460258301537c0100000000000000000000000000000000000000000000000000000000810460248301537b01000000000000000000000000000000000000000000000000000000810460238301537a0100000000000000000000000000000000000000000000000000008104602283015379010000000000000000000000000000000000000000000000000081046021830153780100000000000000000000000000000000000000000000000081046020830153506112cb8282856001600481106110e457fe5b60200201516002876000600481106110f857fe5b60200201516040518082805190602001908083835b60208310611130578051825260208201915060208101905060208303925061110d565b6001836020036101000a038019825116818451168082178552505050505050905001915050602060405180830381855afa158015611172573d6000803e3d6000fd5b5050506040513d602081101561118757600080fd5b8101908080519060200190929190505050876002600481106111a557fe5b60200201516040516020018085805190602001908083835b602083106111e057805182526020820191506020810190506020830392506111bd565b6001836020036101000a03801982511681845116808217855250505050505090500184805190602001908083835b60208310611231578051825260208201915060208101905060208303925061120e565b6001836020036101000a03801982511681845116808217855250505050505090500183815260200182805190602001908083835b602083106112885780518252602082019150602081019050602083039250611265565b6001836020036101000a03801982511681845116808217855250505050505090500194505050505060405160208183030381529060405280519060200120611d00565b8199505050505050505050509392505050565b60008073ffffffffffffffffffffffffffffffffffffffff16600260009054906101000a900473ffffffffffffffffffffffffffffffffffffffff1673ffffffffffffffffffffffffffffffffffffffff16148061136657506000611364600260009054906101000a900473ffffffffffffffffffffffffffffffffffffffff16611d1c565b145b15611377576113756000611d27565b505b600260009054906101000a900473ffffffffffffffffffffffffffffffffffffffff1673ffffffffffffffffffffffffffffffffffffffff166338cc48316040518163ffffffff1660e01b8152600401602060405180830381600087803b1580156113e157600080fd5b505af11580156113f5573d6000803e3d6000fd5b505050506040513d602081101561140b57600080fd5b810190808051906020019092919050505073ffffffffffffffffffffffffffffffffffffffff16600160009054906101000a900473ffffffffffffffffffffffffffffffffffffffff1673ffffffffffffffffffffffffffffffffffffffff161461155657600260009054906101000a900473ffffffffffffffffffffffffffffffffffffffff1673ffffffffffffffffffffffffffffffffffffffff166338cc48316040518163ffffffff1660e01b8152600401602060405180830381600087803b1580156114da57600080fd5b505af11580156114ee573d6000803e3d6000fd5b505050506040513d602081101561150457600080fd5b8101908080519060200190929190505050600160006101000a81548173ffffffffffffffffffffffffffffffffffffffff021916908373ffffffffffffffffffffffffffffffffffffffff1602179055505b600160009054906101000a900473ffffffffffffffffffffffffffffffffffffffff1673ffffffffffffffffffffffffffffffffffffffff1663c281d19e6040518163ffffffff1660e01b815260040160206040518083038186803b1580156115be57600080fd5b505afa1580156115d2573d6000803e3d6000fd5b505050506040513d60208110156115e857600080fd5b8101908080519060200190929190505050905090565b600061160b826000611d38565b9050919050565b60008073ffffffffffffffffffffffffffffffffffffffff16600260009054906101000a900473ffffffffffffffffffffffffffffffffffffffff1673ffffffffffffffffffffffffffffffffffffffff16148061169a57506000611698600260009054906101000a900473ffffffffffffffffffffffffffffffffffffffff16611d1c565b145b156116ab576116a96000611d27565b505b600260009054906101000a900473ffffffffffffffffffffffffffffffffffffffff1673ffffffffffffffffffffffffffffffffffffffff166338cc48316040518163ffffffff1660e01b8152600401602060405180830381600087803b15801561171557600080fd5b505af1158015611729573d6000803e3d6000fd5b505050506040513d602081101561173f57600080fd5b810190808051906020019092919050505073ffffffffffffffffffffffffffffffffffffffff16600160009054906101000a900473ffffffffffffffffffffffffffffffffffffffff1673ffffffffffffffffffffffffffffffffffffffff161461188a57600260009054906101000a900473ffffffffffffffffffffffffffffffffffffffff1673ffffffffffffffffffffffffffffffffffffffff166338cc48316040518163ffffffff1660e01b8152600401602060405180830381600087803b15801561180e57600080fd5b505af1158015611822573d6000803e3d6000fd5b505050506040513d602081101561183857600080fd5b8101908080519060200190929190505050600160006101000a81548173ffffffffffffffffffffffffffffffffffffffff021916908373ffffffffffffffffffffffffffffffffffffffff1602179055505b600160009054906101000a900473ffffffffffffffffffffffffffffffffffffffff1673ffffffffffffffffffffffffffffffffffffffff1663abaa5f3e6040518163ffffffff1660e01b815260040160206040518083038186803b1580156118f257600080fd5b505afa158015611906573d6000803e3d6000fd5b505050506040513d602081101561191c57600080fd5b8101908080519060200190929190505050905090565b606060008285019050808451101561194957600080fd5b600086602001905060008460200190505b868860200101821015611982578189015180828801525060208201915060208101905061195a565b85935050505095945050505050565b60008073ffffffffffffffffffffffffffffffffffffffff16600260009054906101000a900473ffffffffffffffffffffffffffffffffffffffff1673ffffffffffffffffffffffffffffffffffffffff161480611a1957506000611a17600260009054906101000a900473ffffffffffffffffffffffffffffffffffffffff16611d1c565b145b15611a2a57611a286000611d27565b505b600260009054906101000a900473ffffffffffffffffffffffffffffffffffffffff1673ffffffffffffffffffffffffffffffffffffffff166338cc48316040518163ffffffff1660e01b8152600401602060405180830381600087803b158015611a9457600080fd5b505af1158015611aa8573d6000803e3d6000fd5b505050506040513d6020811015611abe57600080fd5b810190808051906020019092919050505073ffffffffffffffffffffffffffffffffffffffff16600160009054906101000a900473ffffffffffffffffffffffffffffffffffffffff1673ffffffffffffffffffffffffffffffffffffffff1614611c0957600260009054906101000a900473ffffffffffffffffffffffffffffffffffffffff1673ffffffffffffffffffffffffffffffffffffffff166338cc48316040518163ffffffff1660e01b8152600401602060405180830381600087803b158015611b8d57600080fd5b505af1158015611ba1573d6000803e3d6000fd5b505050506040513d6020811015611bb757600080fd5b8101908080519060200190929190505050600160006101000a81548173ffffffffffffffffffffffffffffffffffffffff021916908373ffffffffffffffffffffffffffffffffffffffff1602179055505b60606004604051908082528060200260200182016040528015611c4057816020015b6060815260200190600190039081611c2b5790505b50905083600060048110611c5057fe5b602002015181600081518110611c6257fe5b602002602001018190525083600160048110611c7a57fe5b602002015181600181518110611c8c57fe5b602002602001018190525083600260048110611ca457fe5b602002015181600281518110611cb657fe5b602002602001018190525083600360048110611cce57fe5b602002015181600381518110611ce057fe5b6020026020010181905250611cf6858285611e4b565b9150509392505050565b8060046000848152602001908152602001600020819055505050565b6000813b9050919050565b6000611d316123b1565b9050919050565b600060608390506000809050600080905060008090505b8351811015611e2c576030848281518110611d6657fe5b602001015160f81c60f81b60f81c60ff1610158015611da257506039848281518110611d8e57fe5b602001015160f81c60f81b60f81c60ff1611155b15611df4578115611dc5576000861415611dbb57611e2c565b8580600190039650505b600a830292506030848281518110611dd957fe5b602001015160f81c60f81b60f81c60ff160383019250611e1f565b602e848281518110611e0257fe5b602001015160f81c60f81b60f81c60ff161415611e1e57600191505b5b8080600101915050611d4f565b506000851115611e3f5784600a0a820291505b81935050505092915050565b60008073ffffffffffffffffffffffffffffffffffffffff16600260009054906101000a900473ffffffffffffffffffffffffffffffffffffffff1673ffffffffffffffffffffffffffffffffffffffff161480611ed357506000611ed1600260009054906101000a900473ffffffffffffffffffffffffffffffffffffffff16611d1c565b145b15611ee457611ee26000611d27565b505b600260009054906101000a900473ffffffffffffffffffffffffffffffffffffffff1673ffffffffffffffffffffffffffffffffffffffff166338cc48316040518163ffffffff1660e01b8152600401602060405180830381600087803b158015611f4e57600080fd5b505af1158015611f62573d6000803e3d6000fd5b505050506040513d6020811015611f7857600080fd5b810190808051906020019092919050505073ffffffffffffffffffffffffffffffffffffffff16600160009054906101000a900473ffffffffffffffffffffffffffffffffffffffff1673ffffffffffffffffffffffffffffffffffffffff16146120c357600260009054906101000a900473ffffffffffffffffffffffffffffffffffffffff1673ffffffffffffffffffffffffffffffffffffffff166338cc48316040518163ffffffff1660e01b8152600401602060405180830381600087803b15801561204757600080fd5b505af115801561205b573d6000803e3d6000fd5b505050506040513d602081101561207157600080fd5b8101908080519060200190929190505050600160006101000a81548173ffffffffffffffffffffffffffffffffffffffff021916908373ffffffffffffffffffffffffffffffffffffffff1602179055505b6000600160009054906101000a900473ffffffffffffffffffffffffffffffffffffffff1673ffffffffffffffffffffffffffffffffffffffff16632ef3accc86856040518363ffffffff1660e01b81526004018080602001838152602001828103825284818151815260200191508051906020019080838360005b8381101561215a57808201518184015260208101905061213f565b50505050905090810190601f1680156121875780820380516001836020036101000a031916815260200191505b509350505050602060405180830381600087803b1580156121a757600080fd5b505af11580156121bb573d6000803e3d6000fd5b505050506040513d60208110156121d157600080fd5b81019080805190602001909291905050509050823a02670de0b6b3a764000001811115612204576000801b9150506123aa565b606061220f85612908565b9050600160009054906101000a900473ffffffffffffffffffffffffffffffffffffffff1673ffffffffffffffffffffffffffffffffffffffff1663c55c1cb68360008985896040518663ffffffff1660e01b8152600401808581526020018060200180602001848152602001838103835286818151815260200191508051906020019080838360005b838110156122b4578082015181840152602081019050612299565b50505050905090810190601f1680156122e15780820380516001836020036101000a031916815260200191505b50838103825285818151815260200191508051906020019080838360005b8381101561231a5780820151818401526020810190506122ff565b50505050905090810190601f1680156123475780820380516001836020036101000a031916815260200191505b5096505050505050506020604051808303818588803b15801561236957600080fd5b505af115801561237d573d6000803e3d6000fd5b50505050506040513d602081101561239457600080fd5b8101908080519060200190929190505050925050505b9392505050565b6000806123d1731d3b2638a7cc9f2cb3d298a3da7a90b67e5506ed611d1c565b111561247357731d3b2638a7cc9f2cb3d298a3da7a90b67e5506ed600260006101000a81548173ffffffffffffffffffffffffffffffffffffffff021916908373ffffffffffffffffffffffffffffffffffffffff16021790555061246a6040518060400160405280600b81526020017f6574685f6d61696e6e6574000000000000000000000000000000000000000000815250612988565b60019050612905565b600061249273c03a2615d5efaf5f49f60b7bb6583eaec212fdf1611d1c565b11156125345773c03a2615d5efaf5f49f60b7bb6583eaec212fdf1600260006101000a81548173ffffffffffffffffffffffffffffffffffffffff021916908373ffffffffffffffffffffffffffffffffffffffff16021790555061252b6040518060400160405280600c81526020017f6574685f726f707374656e330000000000000000000000000000000000000000815250612988565b60019050612905565b600061255373b7a07bcf2ba2f2703b24c0691b5278999c59ac7e611d1c565b11156125f55773b7a07bcf2ba2f2703b24c0691b5278999c59ac7e600260006101000a81548173ffffffffffffffffffffffffffffffffffffffff021916908373ffffffffffffffffffffffffffffffffffffffff1602179055506125ec6040518060400160405280600981526020017f6574685f6b6f76616e0000000000000000000000000000000000000000000000815250612988565b60019050612905565b600061261473146500cfd35b22e4a392fe0adc06de1a1368ed48611d1c565b11156126b65773146500cfd35b22e4a392fe0adc06de1a1368ed48600260006101000a81548173ffffffffffffffffffffffffffffffffffffffff021916908373ffffffffffffffffffffffffffffffffffffffff1602179055506126ad6040518060400160405280600b81526020017f6574685f72696e6b656279000000000000000000000000000000000000000000815250612988565b60019050612905565b60006126d573a2998efd205fb9d4b4963afb70778d6354ad3a41611d1c565b11156127775773a2998efd205fb9d4b4963afb70778d6354ad3a41600260006101000a81548173ffffffffffffffffffffffffffffffffffffffff021916908373ffffffffffffffffffffffffffffffffffffffff16021790555061276e6040518060400160405280600a81526020017f6574685f676f65726c6900000000000000000000000000000000000000000000815250612988565b60019050612905565b6000612796736f485c8bf6fc43ea212e93bbf8ce046c7f1cb475611d1c565b11156127fa57736f485c8bf6fc43ea212e93bbf8ce046c7f1cb475600260006101000a81548173ffffffffffffffffffffffffffffffffffffffff021916908373ffffffffffffffffffffffffffffffffffffffff16021790555060019050612905565b60006128197320e12a1f859b3feae5fb2a0a32c18f5a65555bbf611d1c565b111561287d577320e12a1f859b3feae5fb2a0a32c18f5a65555bbf600260006101000a81548173ffffffffffffffffffffffffffffffffffffffff021916908373ffffffffffffffffffffffffffffffffffffffff16021790555060019050612905565b600061289c7351efaf4c8b3c9afbd5ab9f4bbc82784ab6ef8faa611d1c565b1115612900577351efaf4c8b3c9afbd5ab9f4bbc82784ab6ef8faa600260006101000a81548173ffffffffffffffffffffffffffffffffffffffff021916908373ffffffffffffffffffffffffffffffffffffffff16021790555060019050612905565b600090505b90565b60606129126129a2565b61291a612e10565b612926816104006129ae565b61292f816129f8565b60008090505b83518110156129715761296484828151811061294d57fe5b602002602001015183612a0690919063ffffffff16565b8080600101915050612935565b5061297b81612a2b565b8060000151915050919050565b806003908051906020019061299e929190612e2a565b5050565b60405180590338823950565b60008190506000602082816129bf57fe5b06146129d857602081816129cf57fe5b06602003810190505b808360200181815250506040518084526000815281810160405250505050565b612a03816004612a39565b50565b612a138260028351612a5a565b612a268183612b9a90919063ffffffff16565b505050565b612a36816007612a39565b50565b612a56601f60058360ff16901b1783612c4590919063ffffffff16565b5050565b60178111612a8657612a818160058460ff16901b60ff161784612c4590919063ffffffff16565b612b95565b60ff8111612ac757612aab601860058460ff16901b1784612c4590919063ffffffff16565b612ac181600185612c859092919063ffffffff16565b50612b94565b61ffff8111612b0957612aed601960058460ff16901b1784612c4590919063ffffffff16565b612b0381600285612c859092919063ffffffff16565b50612b93565b63ffffffff8111612b4d57612b31601a60058460ff16901b1784612c4590919063ffffffff16565b612b4781600485612c859092919063ffffffff16565b50612b92565b67ffffffffffffffff8111612b9157612b79601b60058460ff16901b1784612c4590919063ffffffff16565b612b8f81600885612c859092919063ffffffff16565b505b5b5b5b5b505050565b612ba2612e10565b82602001518360000151518351011115612bd257612bd1836002612bcb86602001518651612cec565b02612d08565b5b60008060008451905085518051602081830101945086518101825260208701935050505b60208110612c195781518352602083019250602082019150602081039050612bf6565b60006001826020036101000a039050801983511681855116818117865250508694505050505092915050565b81602001516001836000015151011115612c6b57612c6a826002846020015102612d08565b5b815180516020818301018381536001820183525050505050565b612c8d612e10565b836020015184600001515183011115612cbb57612cba846002612cb4876020015186612cec565b02612d08565b5b60006001836101000a0390508451805184818301018684198251161781528582018352505050849150509392505050565b600081831115612cfe57829050612d02565b8190505b92915050565b606082600001519050612d1b83836129ae565b612d258382612b9a565b50505050565b6040518060800160405280606081526020016000815260200160008152602001600073ffffffffffffffffffffffffffffffffffffffff1681525090565b828054600181600116156101000203166002900490600052602060002090601f016020900481019282601f10612daa57805160ff1916838001178555612dd8565b82800160010185558215612dd8579182015b82811115612dd7578251825591602001919060010190612dbc565b5b509050612de59190612eaa565b5090565b60405180608001604052806004905b6060815260200190600190039081612df85790505090565b604051806040016040528060608152602001600081525090565b828054600181600116156101000203166002900490600052602060002090601f016020900481019282601f10612e6b57805160ff1916838001178555612e99565b82800160010185558215612e99579182015b82811115612e98578251825591602001919060010190612e7d565b5b509050612ea69190612eaa565b5090565b612ecc91905b80821115612ec8576000816000905550600101612eb0565b5090565b9056fe4e6f7420656e6f75676820657468657220696e20636f6e747261637420746f20616c6c6f7720746865206265742ea265627a7a7231582003e060e23b6b474c450888c38d866e8d27cb4df3eef89d6020659c916a5f5eba64736f6c634300050c00326e656564206174206c6561737420302e3120657468657220746f20696e69742074686520636f6e74726163742077697468",
  "source": "import \"./Ownable.sol\";\r\nimport \"../../ethereum-api/provableAPI_0.5.sol\";\r\npragma solidity 0.5.12;\r\n\r\ncontract RealcoinShitcoin is Ownable, usingProvable{\r\n\r\n  struct Request {\r\n    string id;\r\n    uint bet;\r\n    uint amount;\r\n    address payable senderAddress;\r\n  }\r\n\r\n  uint public balance;\r\n\r\n  mapping (bytes32 => Request) private requests;\r\n\r\n  uint256 constant NUM_RANDOM_BYTES_REQUESTED = 1;\r\n  uint256 public latestNumber;\r\n\r\n  event betResult(string id, uint bet, uint outcome, uint amountWon);\r\n\r\n  constructor() public payable {\r\n    require(msg.value >= 0.1 ether, \"need at least 0.1 ether to init the contract with\");\r\n    balance = msg.value;\r\n  }\r\n\r\n  function placeBet(string memory id, uint bet) public payable{\r\n    require(balance >= msg.value, \"Not enough ether in contract to allow the bet.\");\r\n    Request memory newRequest;\r\n    newRequest.id = id;\r\n    newRequest.bet = bet;\r\n    newRequest.amount = msg.value;\r\n    newRequest.senderAddress = msg.sender;\r\n\r\n    bytes32 oracleRequestId = oracleRandomize();\r\n    requests[oracleRequestId] = newRequest;\r\n\r\n    /*\r\n    uint result = randomize(2);\r\n    uint toTransfer;\r\n\r\n    if(bet == result)\r\n    {\r\n      toTransfer = msg.value * 2;\r\n      balance = balance - toTransfer;\r\n      //send 2x bet amount (bet + win) to sender\r\n      msg.sender.transfer(toTransfer);\r\n    }\r\n    else\r\n    {\r\n      toTransfer = 0;\r\n    }\r\n\r\n    emit betResult(id, bet, result, toTransfer);\r\n    */\r\n  }\r\n\r\n  //only used for local tests\r\n  /*\r\n  function testRandom() public returns (bytes32){\r\n    bytes32 queryId = bytes32(keccak256(abi.encodePacked(msg.sender)));\r\n    __callback(queryId, \"1\", bytes(\"test\"));\r\n    return queryId;\r\n  }\r\n  */\r\n\r\n  function randomize(uint modulus) public view returns (uint){\r\n    return now % modulus;\r\n  }\r\n\r\n  function __callback(bytes32 _queryId, string memory _result, bytes memory _proof) public{\r\n    require(msg.sender == provable_cbAddress());\r\n    uint256 randomNumber = uint256(keccak256(abi.encodePacked(_result))) % 2;\r\n    latestNumber = randomNumber;\r\n    Request memory callbackRequest = requests[_queryId];\r\n    uint amountToTransfer = 0;\r\n    uint uintResult = parseInt(_result);\r\n    if(callbackRequest.bet == uintResult){\r\n      amountToTransfer = callbackRequest.amount * 2;\r\n      balance = balance - amountToTransfer;\r\n      callbackRequest.senderAddress.transfer(amountToTransfer);\r\n    }\r\n\r\n    emit betResult(callbackRequest.id, callbackRequest.bet, uintResult, callbackRequest.amount * 2);\r\n  }\r\n\r\n  function oracleRandomize() payable public returns (bytes32){\r\n    uint256 QUERY_EXECUTION_DELAY = 0;\r\n    uint256 GAS_FOR_CALLBACK = 200000;\r\n    //queryId used to map to the callback and then the user for result\r\n    return provable_newRandomDSQuery(QUERY_EXECUTION_DELAY, NUM_RANDOM_BYTES_REQUESTED, GAS_FOR_CALLBACK);\r\n    //return testRandom();\r\n  }\r\n\r\n  function compareStrings (string memory a, string memory b) public pure returns (bool) {\r\n    return (keccak256(abi.encodePacked((a))) == keccak256(abi.encodePacked((b))));\r\n  }\r\n\r\n  function withdrawAll() public onlyOwner returns(uint) {\r\n       uint toTransfer = balance;\r\n       balance = 0;\r\n       msg.sender.transfer(toTransfer);\r\n       return toTransfer;\r\n   }\r\n\r\n}\r\n",
  "sourcePath": "C:/GitRepository/RealcoinShitcoin/contracts/RealcoinShitcoin.sol",
  "compiler": {
    "name": "solc",
    "version": "0.5.12+commit.7709ece9.Emscripten.clang"
  },
  "schemaVersion": "3.0.16",
  "updatedAt": "2020-05-27T00:32:27.011Z",
  "devdoc": {
    "methods": {
      "__callback(bytes32,string)": {
        "details": "The following `__callback` functions are just placeholders ideally     meant to be defined in child contract when proofs are used.     The function bodies simply silence compiler warnings."
      }
    }
  },
  "userdoc": {
    "methods": {}
  }
}